:100000001EC038C016C136C035C0C9C033C032C0EA
:1000100031C030C02FC02EC02DC02CC02BC000005E
:100020000000380000000000370002020202020255
:100030000202020201020408102020041008112408
:100040001FBECFE5D2E0DEBFCDBF10E0A0E6B0E03E
:10005000E2E5F3E002C005900D92A038B107D9F7B0
:1000600020E0A0E8B0E001C01D92A938B207E1F796
:1000700004D16DC1C5CFCF93DF9390E0FC01EC5C60
:10008000FF4F2491865D9F4FFC0184918823D1F01E
:1000900090E0880F991FFC01EC5DFF4FA591B49192
:1000A000FC01E25EFF4FC591D491623071F49FB7BD
:1000B000F8943C91822F809583238C93E8812E2B9A
:1000C00028839FBFDF91CF9108958FB7F894EC916B
:1000D0002E2B2C938FBFF6CF8F929F92AF92BF9211
:1000E000CF92DF92EF92FF92CF93DF936B017C016F
:1000F00084E0CC0CDD1CEE1CFF1C8A95D1F7D0E00F
:10010000C0E0812C90EC992E98EAA92EB12C219672
:10011000A70196010C2E04C0220F331F441F551F48
:100120000A94D2F7C501B401F0D0DA01C9010197F0
:10013000A109B1098F3F9105A105B10579F070F0D2
:10014000CF30D10521F7DF91CF91FF90EF90DF9075
:10015000CF90BF90AF909F908F900895C069C0BF1F
:100160008DBD8EBDF0CF86B324E082FD20E092E00D
:1001700080FD90E085FBEE27E0F981E0E827E22BA7
:10018000E92B0E2E000CFF0BEE0FFF1FEE0FFF1FD3
:10019000E05AFF4F608171818281938108951F929F
:1001A0000F920FB60F9211242F933F938F939F932B
:1001B000AF93BF938091850090918600A0918700B6
:1001C000B09188003091840023E0230F2D3758F53B
:1001D0000196A11DB11D209384008093850090930A
:1001E0008600A0938700B093880080918000909152
:1001F0008100A0918200B09183000196A11DB11DE4
:100200008093800090938100A0938200B09383003C
:10021000BF91AF919F918F913F912F910F900FBE02
:100220000F901F90189526E8230F0296A11DB11D6F
:10023000D2CF1F920F920FB60F9211242F933F939C
:100240004F935F936F937F938F939F93AF93BF93DE
:10025000EF93FF9388DF40DFFF91EF91BF91AF9164
:100260009F918F917F916F915F914F913F912F91CE
:100270000F900FBE0F901F90189578948AB58260EA
:100280008ABD8AB581608ABD83B7826083BF83B728
:10029000816083BF89B7826089BF80B7826080BF79
:1002A00080B7816080BF329A319A309A379A8CB584
:1002B00080648CBD62E080E0DEDE61E081E0DBDE58
:1002C00062E082E0D8DE62E085E0D5DE4CDF04DF6C
:1002D0003798479A85B7846885BF8B7F85BF85B778
:1002E000877E85BF8BB780628BBF85B3856285BBF8
:1002F000C0E0D0E085B7806285BF889585B78F7DE7
:1003000085BF2097B9F37CDEF5CFA1E21A2EAA1B98
:10031000BB1BFD010DC0AA1FBB1FEE1FFF1FA217B5
:10032000B307E407F50720F0A21BB30BE40BF50BB2
:10033000661F771F881F991F1A9469F7609570953B
:10034000809590959B01AC01BD01CF010895F89473
:02035000FFCFDD
:100352006E0000002C010000B004000060090000E3
:1003620080250000004B00000096000000E1000024
:00000001FF
